{
  "_format": "hh3-artifact-1",
  "contractName": "GPULease",
  "sourceName": "contracts/GPULease.sol",
  "abi": [
    {
      "inputs": [
        {
          "internalType": "address",
          "name": "credit_",
          "type": "address"
        },
        {
          "internalType": "address",
          "name": "treasury_",
          "type": "address"
        }
      ],
      "stateMutability": "nonpayable",
      "type": "constructor"
    },
    {
      "inputs": [
        {
          "internalType": "address",
          "name": "owner",
          "type": "address"
        }
      ],
      "name": "OwnableInvalidOwner",
      "type": "error"
    },
    {
      "inputs": [
        {
          "internalType": "address",
          "name": "account",
          "type": "address"
        }
      ],
      "name": "OwnableUnauthorizedAccount",
      "type": "error"
    },
    {
      "inputs": [
        {
          "internalType": "address",
          "name": "token",
          "type": "address"
        }
      ],
      "name": "SafeERC20FailedOperation",
      "type": "error"
    },
    {
      "anonymous": false,
      "inputs": [
        {
          "indexed": true,
          "internalType": "address",
          "name": "user",
          "type": "address"
        },
        {
          "indexed": false,
          "internalType": "uint256",
          "name": "amount",
          "type": "uint256"
        }
      ],
      "name": "Deposit",
      "type": "event"
    },
    {
      "anonymous": false,
      "inputs": [
        {
          "indexed": false,
          "internalType": "uint256",
          "name": "leaseId",
          "type": "uint256"
        }
      ],
      "name": "LeaseCompleted",
      "type": "event"
    },
    {
      "anonymous": false,
      "inputs": [
        {
          "indexed": false,
          "internalType": "uint256",
          "name": "leaseId",
          "type": "uint256"
        }
      ],
      "name": "LeasePaused",
      "type": "event"
    },
    {
      "anonymous": false,
      "inputs": [
        {
          "indexed": false,
          "internalType": "uint256",
          "name": "leaseId",
          "type": "uint256"
        }
      ],
      "name": "LeaseResumed",
      "type": "event"
    },
    {
      "anonymous": false,
      "inputs": [
        {
          "indexed": false,
          "internalType": "uint256",
          "name": "leaseId",
          "type": "uint256"
        },
        {
          "indexed": false,
          "internalType": "address",
          "name": "user",
          "type": "address"
        },
        {
          "indexed": false,
          "internalType": "address",
          "name": "provider",
          "type": "address"
        },
        {
          "indexed": false,
          "internalType": "uint256",
          "name": "duration",
          "type": "uint256"
        },
        {
          "indexed": false,
          "internalType": "uint256",
          "name": "amount",
          "type": "uint256"
        }
      ],
      "name": "LeaseStarted",
      "type": "event"
    },
    {
      "anonymous": false,
      "inputs": [
        {
          "indexed": true,
          "internalType": "address",
          "name": "previousOwner",
          "type": "address"
        },
        {
          "indexed": true,
          "internalType": "address",
          "name": "newOwner",
          "type": "address"
        }
      ],
      "name": "OwnershipTransferred",
      "type": "event"
    },
    {
      "anonymous": false,
      "inputs": [
        {
          "indexed": true,
          "internalType": "address",
          "name": "user",
          "type": "address"
        },
        {
          "indexed": false,
          "internalType": "uint256",
          "name": "amount",
          "type": "uint256"
        }
      ],
      "name": "Withdraw",
      "type": "event"
    },
    {
      "inputs": [
        {
          "internalType": "address",
          "name": "",
          "type": "address"
        }
      ],
      "name": "balances",
      "outputs": [
        {
          "internalType": "uint256",
          "name": "",
          "type": "uint256"
        }
      ],
      "stateMutability": "view",
      "type": "function"
    },
    {
      "inputs": [
        {
          "internalType": "uint256",
          "name": "_leaseId",
          "type": "uint256"
        }
      ],
      "name": "completeLease",
      "outputs": [],
      "stateMutability": "nonpayable",
      "type": "function"
    },
    {
      "inputs": [],
      "name": "credit",
      "outputs": [
        {
          "internalType": "contract IERC20",
          "name": "",
          "type": "address"
        }
      ],
      "stateMutability": "view",
      "type": "function"
    },
    {
      "inputs": [
        {
          "internalType": "uint256",
          "name": "amount",
          "type": "uint256"
        }
      ],
      "name": "deposit",
      "outputs": [],
      "stateMutability": "nonpayable",
      "type": "function"
    },
    {
      "inputs": [
        {
          "internalType": "uint256",
          "name": "",
          "type": "uint256"
        }
      ],
      "name": "frozenFunds",
      "outputs": [
        {
          "internalType": "uint256",
          "name": "",
          "type": "uint256"
        }
      ],
      "stateMutability": "view",
      "type": "function"
    },
    {
      "inputs": [
        {
          "internalType": "address",
          "name": "user",
          "type": "address"
        }
      ],
      "name": "getUserFrozenFunds",
      "outputs": [
        {
          "components": [
            {
              "internalType": "uint256",
              "name": "leaseId",
              "type": "uint256"
            },
            {
              "internalType": "uint256",
              "name": "amount",
              "type": "uint256"
            }
          ],
          "internalType": "struct GPULease.FrozenFundsInfo[]",
          "name": "result",
          "type": "tuple[]"
        }
      ],
      "stateMutability": "view",
      "type": "function"
    },
    {
      "inputs": [],
      "name": "leaseCount",
      "outputs": [
        {
          "internalType": "uint256",
          "name": "",
          "type": "uint256"
        }
      ],
      "stateMutability": "view",
      "type": "function"
    },
    {
      "inputs": [
        {
          "internalType": "uint256",
          "name": "",
          "type": "uint256"
        }
      ],
      "name": "leases",
      "outputs": [
        {
          "internalType": "address",
          "name": "user",
          "type": "address"
        },
        {
          "internalType": "address",
          "name": "provider",
          "type": "address"
        },
        {
          "internalType": "uint256",
          "name": "startTime",
          "type": "uint256"
        },
        {
          "internalType": "uint256",
          "name": "duration",
          "type": "uint256"
        },
        {
          "internalType": "uint256",
          "name": "storagePricePerSecond",
          "type": "uint256"
        },
        {
          "internalType": "uint256",
          "name": "computePricePerSecond",
          "type": "uint256"
        },
        {
          "internalType": "bool",
          "name": "active",
          "type": "bool"
        },
        {
          "internalType": "bool",
          "name": "completed",
          "type": "bool"
        },
        {
          "internalType": "bool",
          "name": "paused",
          "type": "bool"
        },
        {
          "internalType": "uint256",
          "name": "pausedAt",
          "type": "uint256"
        },
        {
          "internalType": "uint256",
          "name": "pausedDuration",
          "type": "uint256"
        }
      ],
      "stateMutability": "view",
      "type": "function"
    },
    {
      "inputs": [],
      "name": "owner",
      "outputs": [
        {
          "internalType": "address",
          "name": "",
          "type": "address"
        }
      ],
      "stateMutability": "view",
      "type": "function"
    },
    {
      "inputs": [
        {
          "internalType": "uint256",
          "name": "_leaseId",
          "type": "uint256"
        }
      ],
      "name": "pauseLease",
      "outputs": [],
      "stateMutability": "nonpayable",
      "type": "function"
    },
    {
      "inputs": [],
      "name": "platformFeePercentage",
      "outputs": [
        {
          "internalType": "uint256",
          "name": "",
          "type": "uint256"
        }
      ],
      "stateMutability": "view",
      "type": "function"
    },
    {
      "inputs": [],
      "name": "renounceOwnership",
      "outputs": [],
      "stateMutability": "nonpayable",
      "type": "function"
    },
    {
      "inputs": [
        {
          "internalType": "uint256",
          "name": "_leaseId",
          "type": "uint256"
        }
      ],
      "name": "resumeLease",
      "outputs": [],
      "stateMutability": "nonpayable",
      "type": "function"
    },
    {
      "inputs": [
        {
          "internalType": "uint256",
          "name": "_feePercentage",
          "type": "uint256"
        }
      ],
      "name": "setPlatformFee",
      "outputs": [],
      "stateMutability": "nonpayable",
      "type": "function"
    },
    {
      "inputs": [
        {
          "internalType": "address",
          "name": "newTreasury",
          "type": "address"
        }
      ],
      "name": "setTreasury",
      "outputs": [],
      "stateMutability": "nonpayable",
      "type": "function"
    },
    {
      "inputs": [
        {
          "internalType": "uint256",
          "name": "_duration",
          "type": "uint256"
        },
        {
          "internalType": "uint256",
          "name": "_storagePricePerSecond",
          "type": "uint256"
        },
        {
          "internalType": "uint256",
          "name": "_computePricePerSecond",
          "type": "uint256"
        },
        {
          "internalType": "address",
          "name": "_provider",
          "type": "address"
        },
        {
          "internalType": "address",
          "name": "_user",
          "type": "address"
        }
      ],
      "name": "startLease",
      "outputs": [
        {
          "internalType": "uint256",
          "name": "leaseId",
          "type": "uint256"
        }
      ],
      "stateMutability": "nonpayable",
      "type": "function"
    },
    {
      "inputs": [
        {
          "internalType": "address",
          "name": "newOwner",
          "type": "address"
        }
      ],
      "name": "transferOwnership",
      "outputs": [],
      "stateMutability": "nonpayable",
      "type": "function"
    },
    {
      "inputs": [],
      "name": "treasury",
      "outputs": [
        {
          "internalType": "address",
          "name": "",
          "type": "address"
        }
      ],
      "stateMutability": "view",
      "type": "function"
    },
    {
      "inputs": [
        {
          "internalType": "address",
          "name": "",
          "type": "address"
        },
        {
          "internalType": "uint256",
          "name": "",
          "type": "uint256"
        }
      ],
      "name": "userActiveLeases",
      "outputs": [
        {
          "internalType": "uint256",
          "name": "",
          "type": "uint256"
        }
      ],
      "stateMutability": "view",
      "type": "function"
    },
    {
      "inputs": [
        {
          "internalType": "address",
          "name": "user",
          "type": "address"
        }
      ],
      "name": "userBalance",
      "outputs": [
        {
          "internalType": "uint256",
          "name": "",
          "type": "uint256"
        }
      ],
      "stateMutability": "view",
      "type": "function"
    },
    {
      "inputs": [
        {
          "internalType": "uint256",
          "name": "amount",
          "type": "uint256"
        }
      ],
      "name": "withdraw",
      "outputs": [],
      "stateMutability": "nonpayable",
      "type": "function"
    }
  ],
  "bytecode": "0x60806040525f6007556005600855348015610018575f5ffd5b50604051612bcd380380612bcd833981810160405281019061003a9190610261565b335f73ffffffffffffffffffffffffffffffffffffffff168173ffffffffffffffffffffffffffffffffffffffff16036100ab575f6040517f1e4fbdf70000000000000000000000000000000000000000000000000000000081526004016100a291906102ae565b60405180910390fd5b6100ba8161014260201b60201c565b508160015f6101000a81548173ffffffffffffffffffffffffffffffffffffffff021916908373ffffffffffffffffffffffffffffffffffffffff1602179055508060025f6101000a81548173ffffffffffffffffffffffffffffffffffffffff021916908373ffffffffffffffffffffffffffffffffffffffff16021790555050506102c7565b5f5f5f9054906101000a900473ffffffffffffffffffffffffffffffffffffffff169050815f5f6101000a81548173ffffffffffffffffffffffffffffffffffffffff021916908373ffffffffffffffffffffffffffffffffffffffff1602179055508173ffffffffffffffffffffffffffffffffffffffff168173ffffffffffffffffffffffffffffffffffffffff167f8be0079c531659141344cd1fd0a4f28419497f9722a3daafe3b4186f6b6457e060405160405180910390a35050565b5f5ffd5b5f73ffffffffffffffffffffffffffffffffffffffff82169050919050565b5f61023082610207565b9050919050565b61024081610226565b811461024a575f5ffd5b50565b5f8151905061025b81610237565b92915050565b5f5f6040838503121561027757610276610203565b5b5f6102848582860161024d565b92505060206102958582860161024d565b9150509250929050565b6102a881610226565b82525050565b5f6020820190506102c15f83018461029f565b92915050565b6128f9806102d45f395ff3fe608060405234801561000f575f5ffd5b5060043610610135575f3560e01c806397c4d284116100b6578063b8eeaa781161007a578063b8eeaa7814610341578063cdd78cfc1461035d578063e869a0601461037b578063f0f44260146103ab578063f2fde38b146103c7578063f648da80146103e357610135565b806397c4d28414610289578063a06d083c146102b9578063a641992a146102d7578063b4c0498b14610307578063b6b55f251461032557610135565b806361d027b3116100fd57806361d027b3146101ed578063715018a61461020b5780638927a106146102155780638da5cb5b1461024f57806395e6e2421461026d57610135565b80630103c92b1461013957806312e8e2c31461016957806318ba11c91461018557806327e235e3146101a15780632e1a7d4d146101d1575b5f5ffd5b610153600480360381019061014e9190611d52565b610413565b6040516101609190611d95565b60405180910390f35b610183600480360381019061017e9190611dd8565b610459565b005b61019f600480360381019061019a9190611dd8565b6104af565b005b6101bb60048036038101906101b69190611d52565b61064c565b6040516101c89190611d95565b60405180910390f35b6101eb60048036038101906101e69190611dd8565b610661565b005b6101f56107d1565b6040516102029190611e12565b60405180910390f35b6102136107f6565b005b61022f600480360381019061022a9190611dd8565b610809565b6040516102469b9a99989796959493929190611e45565b60405180910390f35b6102576108c3565b6040516102649190611e12565b60405180910390f35b61028760048036038101906102829190611dd8565b6108ea565b005b6102a3600480360381019061029e9190611d52565b610d6d565b6040516102b09190611fd2565b60405180910390f35b6102c1610e92565b6040516102ce919061204d565b60405180910390f35b6102f160048036038101906102ec9190611dd8565b610eb7565b6040516102fe9190611d95565b60405180910390f35b61030f610ecc565b60405161031c9190611d95565b60405180910390f35b61033f600480360381019061033a9190611dd8565b610ed2565b005b61035b60048036038101906103569190611dd8565b610fc4565b005b610365611135565b6040516103729190611d95565b60405180910390f35b61039560048036038101906103909190612066565b61113b565b6040516103a29190611d95565b60405180910390f35b6103c560048036038101906103c09190611d52565b611166565b005b6103e160048036038101906103dc9190611d52565b611303565b005b6103fd60048036038101906103f891906120a4565b611387565b60405161040a9190611d95565b60405180910390f35b5f60045f8373ffffffffffffffffffffffffffffffffffffffff1673ffffffffffffffffffffffffffffffffffffffff1681526020019081526020015f20549050919050565b610461611905565b60648111156104a5576040517f08c379a000000000000000000000000000000000000000000000000000000000815260040161049c90612175565b60405180910390fd5b8060088190555050565b6104b7611905565b5f60065f8381526020019081526020015f209050806006015f9054906101000a900460ff1661051b576040517f08c379a0000000000000000000000000000000000000000000000000000000008152600401610512906121dd565b60405180910390fd5b8060060160019054906101000a900460ff161561056d576040517f08c379a000000000000000000000000000000000000000000000000000000000815260040161056490612245565b60405180910390fd5b8060060160029054906101000a900460ff166105be576040517f08c379a00000000000000000000000000000000000000000000000000000000081526004016105b5906122ad565b60405180910390fd5b5f8160070154426105cf91906122f8565b905080826008015f8282546105e4919061232b565b925050819055505f82600701819055505f8260060160026101000a81548160ff0219169083151502179055507f0ec1e889672cca90b2287dde9161b83295c31ef8ed2a8bd943a7f04b183f91678360405161063f9190611d95565b60405180910390a1505050565b6004602052805f5260405f205f915090505481565b8060045f3373ffffffffffffffffffffffffffffffffffffffff1673ffffffffffffffffffffffffffffffffffffffff1681526020019081526020015f205410156106e1576040517f08c379a00000000000000000000000000000000000000000000000000000000081526004016106d8906123a8565b60405180910390fd5b61072d338260015f9054906101000a900473ffffffffffffffffffffffffffffffffffffffff1673ffffffffffffffffffffffffffffffffffffffff1661198c9092919063ffffffff16565b8060045f3373ffffffffffffffffffffffffffffffffffffffff1673ffffffffffffffffffffffffffffffffffffffff1681526020019081526020015f205f82825461077991906122f8565b925050819055503373ffffffffffffffffffffffffffffffffffffffff167f884edad9ce6fa2440d8a54cc123490eb96d2768479d49ff9c7366125a9424364826040516107c69190611d95565b60405180910390a250565b60025f9054906101000a900473ffffffffffffffffffffffffffffffffffffffff1681565b6107fe611905565b6108075f6119df565b565b6006602052805f5260405f205f91509050805f015f9054906101000a900473ffffffffffffffffffffffffffffffffffffffff1690806001015f9054906101000a900473ffffffffffffffffffffffffffffffffffffffff1690806002015490806003015490806004015490806005015490806006015f9054906101000a900460ff16908060060160019054906101000a900460ff16908060060160029054906101000a900460ff1690806007015490806008015490508b565b5f5f5f9054906101000a900473ffffffffffffffffffffffffffffffffffffffff16905090565b6108f2611905565b5f60065f8381526020019081526020015f209050806006015f9054906101000a900460ff16610956576040517f08c379a000000000000000000000000000000000000000000000000000000000815260040161094d906121dd565b60405180910390fd5b8060060160019054906101000a900460ff16156109a8576040517f08c379a000000000000000000000000000000000000000000000000000000000815260040161099f90612245565b60405180910390fd5b5f5f6109b384611aa0565b80925081935050505f81836109c8919061232b565b90505f6064600854836109db91906123c6565b6109e59190612434565b90508060045f60025f9054906101000a900473ffffffffffffffffffffffffffffffffffffffff1673ffffffffffffffffffffffffffffffffffffffff1673ffffffffffffffffffffffffffffffffffffffff1681526020019081526020015f205f828254610a54919061232b565b925050819055508060055f8881526020019081526020015f205f828254610a7b91906122f8565b925050819055505f8183610a8f91906122f8565b90508060045f886001015f9054906101000a900473ffffffffffffffffffffffffffffffffffffffff1673ffffffffffffffffffffffffffffffffffffffff1673ffffffffffffffffffffffffffffffffffffffff1681526020019081526020015f205f828254610b00919061232b565b925050819055508060055f8981526020019081526020015f205f828254610b2791906122f8565b9250508190555060055f8881526020019081526020015f205460045f885f015f9054906101000a900473ffffffffffffffffffffffffffffffffffffffff1673ffffffffffffffffffffffffffffffffffffffff1673ffffffffffffffffffffffffffffffffffffffff1681526020019081526020015f205f828254610bad919061232b565b9250508190555060055f8881526020019081526020015f205f905560018660060160016101000a81548160ff0219169083151502179055505f866006015f6101000a81548160ff0219169083151502179055505f60065f8981526020019081526020015f205f015f9054906101000a900473ffffffffffffffffffffffffffffffffffffffff1690505f60035f8373ffffffffffffffffffffffffffffffffffffffff1673ffffffffffffffffffffffffffffffffffffffff1681526020019081526020015f2090505f5f90505b8180549050811015610d2a5789828281548110610c9b57610c9a612464565b5b905f5260205f20015403610d1d578160018380549050610cbb91906122f8565b81548110610ccc57610ccb612464565b5b905f5260205f200154828281548110610ce857610ce7612464565b5b905f5260205f20018190555081805480610d0557610d04612491565b5b600190038181905f5260205f20015f90559055610d2a565b8080600101915050610c7b565b507f5a1241b1f059ce7cc7acee21bf522f44360638a58f17c58bd390a0f0af7e193789604051610d5a9190611d95565b60405180910390a1505050505050505050565b60605f60035f8473ffffffffffffffffffffffffffffffffffffffff1673ffffffffffffffffffffffffffffffffffffffff1681526020019081526020015f209050808054905067ffffffffffffffff811115610dcd57610dcc6124be565b5b604051908082528060200260200182016040528015610e0657816020015b610df3611cdc565b815260200190600190039081610deb5790505b5091505f5f90505b8180549050811015610e8b575f828281548110610e2e57610e2d612464565b5b905f5260205f2001549050604051806040016040528082815260200160055f8481526020019081526020015f2054815250848381518110610e7257610e71612464565b5b6020026020010181905250508080600101915050610e0e565b5050919050565b60015f9054906101000a900473ffffffffffffffffffffffffffffffffffffffff1681565b6005602052805f5260405f205f915090505481565b60075481565b610f2033308360015f9054906101000a900473ffffffffffffffffffffffffffffffffffffffff1673ffffffffffffffffffffffffffffffffffffffff16611bad909392919063ffffffff16565b8060045f3373ffffffffffffffffffffffffffffffffffffffff1673ffffffffffffffffffffffffffffffffffffffff1681526020019081526020015f205f828254610f6c919061232b565b925050819055503373ffffffffffffffffffffffffffffffffffffffff167fe1fffcc4923d04b559f4d29a8bfc6cda04eb5b0d3c460751c2402c5c5cc9109c82604051610fb99190611d95565b60405180910390a250565b610fcc611905565b5f60065f8381526020019081526020015f209050806006015f9054906101000a900460ff16611030576040517f08c379a0000000000000000000000000000000000000000000000000000000008152600401611027906121dd565b60405180910390fd5b8060060160019054906101000a900460ff1615611082576040517f08c379a000000000000000000000000000000000000000000000000000000000815260040161107990612245565b60405180910390fd5b8060060160029054906101000a900460ff16156110d4576040517f08c379a00000000000000000000000000000000000000000000000000000000081526004016110cb90612535565b60405180910390fd5b42816007018190555060018160060160026101000a81548160ff0219169083151502179055507fb04140f2785e8aa46842b88fdbee148f5bcd51a8e9c4b367b7f431e80a6ed5a1826040516111299190611d95565b60405180910390a15050565b60085481565b6003602052815f5260405f208181548110611154575f80fd5b905f5260205f20015f91509150505481565b61116e611905565b5f73ffffffffffffffffffffffffffffffffffffffff168173ffffffffffffffffffffffffffffffffffffffff16036111dc576040517f08c379a00000000000000000000000000000000000000000000000000000000081526004016111d39061259d565b60405180910390fd5b5f61120760025f9054906101000a900473ffffffffffffffffffffffffffffffffffffffff16610413565b90508060045f8473ffffffffffffffffffffffffffffffffffffffff1673ffffffffffffffffffffffffffffffffffffffff1681526020019081526020015f205f828254611255919061232b565b925050819055505f60045f60025f9054906101000a900473ffffffffffffffffffffffffffffffffffffffff1673ffffffffffffffffffffffffffffffffffffffff1673ffffffffffffffffffffffffffffffffffffffff1681526020019081526020015f20819055508160025f6101000a81548173ffffffffffffffffffffffffffffffffffffffff021916908373ffffffffffffffffffffffffffffffffffffffff1602179055505050565b61130b611905565b5f73ffffffffffffffffffffffffffffffffffffffff168173ffffffffffffffffffffffffffffffffffffffff160361137b575f6040517f1e4fbdf70000000000000000000000000000000000000000000000000000000081526004016113729190611e12565b60405180910390fd5b611384816119df565b50565b5f611390611905565b5f86116113d2576040517f08c379a00000000000000000000000000000000000000000000000000000000081526004016113c990612605565b60405180910390fd5b5f8511806113df57505f84115b61141e576040517f08c379a00000000000000000000000000000000000000000000000000000000081526004016114159061266d565b60405180910390fd5b5f73ffffffffffffffffffffffffffffffffffffffff168273ffffffffffffffffffffffffffffffffffffffff160361148c576040517f08c379a0000000000000000000000000000000000000000000000000000000008152600401611483906126d5565b60405180910390fd5b5f73ffffffffffffffffffffffffffffffffffffffff168373ffffffffffffffffffffffffffffffffffffffff16036114fa576040517f08c379a00000000000000000000000000000000000000000000000000000000081526004016114f19061273d565b60405180910390fd5b5f858761150791906123c6565b90505f858861151691906123c6565b90505f8183611525919061232b565b90505f60646008548361153891906123c6565b6115429190612434565b90508082611550919061232b565b91508160045f8873ffffffffffffffffffffffffffffffffffffffff1673ffffffffffffffffffffffffffffffffffffffff1681526020019081526020015f205410156115d2576040517f08c379a00000000000000000000000000000000000000000000000000000000081526004016115c9906127a5565b60405180910390fd5b8160045f8873ffffffffffffffffffffffffffffffffffffffff1673ffffffffffffffffffffffffffffffffffffffff1681526020019081526020015f205461161b91906122f8565b60045f8873ffffffffffffffffffffffffffffffffffffffff1673ffffffffffffffffffffffffffffffffffffffff1681526020019081526020015f20819055508160055f60075481526020019081526020015f2081905550600754945060075f81548092919061168b906127c3565b91905055506040518061016001604052808773ffffffffffffffffffffffffffffffffffffffff1681526020018873ffffffffffffffffffffffffffffffffffffffff16815260200161012c426116e291906122f8565b81526020018b81526020018a81526020018981526020016001151581526020015f151581526020015f151581526020015f81526020015f81525060065f8781526020019081526020015f205f820151815f015f6101000a81548173ffffffffffffffffffffffffffffffffffffffff021916908373ffffffffffffffffffffffffffffffffffffffff1602179055506020820151816001015f6101000a81548173ffffffffffffffffffffffffffffffffffffffff021916908373ffffffffffffffffffffffffffffffffffffffff16021790555060408201518160020155606082015181600301556080820151816004015560a0820151816005015560c0820151816006015f6101000a81548160ff02191690831515021790555060e08201518160060160016101000a81548160ff0219169083151502179055506101008201518160060160026101000a81548160ff0219169083151502179055506101208201518160070155610140820151816008015590505060035f8773ffffffffffffffffffffffffffffffffffffffff1673ffffffffffffffffffffffffffffffffffffffff1681526020019081526020015f2085908060018154018082558091505060019003905f5260205f20015f90919091909150557f4501059f1dbad8e151132c2515ee7ea78d4b2540b9e56e941a03fdb9888efe288587898d866040516118f095949392919061280a565b60405180910390a15050505095945050505050565b61190d611c02565b73ffffffffffffffffffffffffffffffffffffffff1661192b6108c3565b73ffffffffffffffffffffffffffffffffffffffff161461198a5761194e611c02565b6040517f118cdaa70000000000000000000000000000000000000000000000000000000081526004016119819190611e12565b60405180910390fd5b565b6119998383836001611c09565b6119da57826040517f5274afe70000000000000000000000000000000000000000000000000000000081526004016119d19190611e12565b60405180910390fd5b505050565b5f5f5f9054906101000a900473ffffffffffffffffffffffffffffffffffffffff169050815f5f6101000a81548173ffffffffffffffffffffffffffffffffffffffff021916908373ffffffffffffffffffffffffffffffffffffffff1602179055508173ffffffffffffffffffffffffffffffffffffffff168173ffffffffffffffffffffffffffffffffffffffff167f8be0079c531659141344cd1fd0a4f28419497f9722a3daafe3b4186f6b6457e060405160405180910390a35050565b5f5f5f60065f8581526020019081526020015f2090505f816002015411611afc576040517f08c379a0000000000000000000000000000000000000000000000000000000008152600401611af3906128a5565b60405180910390fd5b5f816002015442611b0d91906122f8565b90508160030154811115611b2357816003015490505b5f826008015490508260060160029054906101000a900460ff1615611b65575f836007015442611b5391906122f8565b90508082611b61919061232b565b9150505b81811115611b71578190505b5f8183611b7e91906122f8565b9050836004015483611b9091906123c6565b9550836005015481611ba291906123c6565b945050505050915091565b611bbb848484846001611c6b565b611bfc57836040517f5274afe7000000000000000000000000000000000000000000000000000000008152600401611bf39190611e12565b60405180910390fd5b50505050565b5f33905090565b5f5f63a9059cbb60e01b9050604051815f525f1960601c86166004528460245260205f60445f5f8b5af1925060015f51148316611c5d578383151615611c51573d5f823e3d81fd5b5f873b113d1516831692505b806040525050949350505050565b5f5f6323b872dd60e01b9050604051815f525f1960601c87166004525f1960601c86166024528460445260205f60645f5f8c5af1925060015f51148316611cc9578383151615611cbd573d5f823e3d81fd5b5f883b113d1516831692505b806040525f606052505095945050505050565b60405180604001604052805f81526020015f81525090565b5f5ffd5b5f73ffffffffffffffffffffffffffffffffffffffff82169050919050565b5f611d2182611cf8565b9050919050565b611d3181611d17565b8114611d3b575f5ffd5b50565b5f81359050611d4c81611d28565b92915050565b5f60208284031215611d6757611d66611cf4565b5b5f611d7484828501611d3e565b91505092915050565b5f819050919050565b611d8f81611d7d565b82525050565b5f602082019050611da85f830184611d86565b92915050565b611db781611d7d565b8114611dc1575f5ffd5b50565b5f81359050611dd281611dae565b92915050565b5f60208284031215611ded57611dec611cf4565b5b5f611dfa84828501611dc4565b91505092915050565b611e0c81611d17565b82525050565b5f602082019050611e255f830184611e03565b92915050565b5f8115159050919050565b611e3f81611e2b565b82525050565b5f61016082019050611e595f83018e611e03565b611e66602083018d611e03565b611e73604083018c611d86565b611e80606083018b611d86565b611e8d608083018a611d86565b611e9a60a0830189611d86565b611ea760c0830188611e36565b611eb460e0830187611e36565b611ec2610100830186611e36565b611ed0610120830185611d86565b611ede610140830184611d86565b9c9b505050505050505050505050565b5f81519050919050565b5f82825260208201905092915050565b5f819050602082019050919050565b611f2081611d7d565b82525050565b604082015f820151611f3a5f850182611f17565b506020820151611f4d6020850182611f17565b50505050565b5f611f5e8383611f26565b60408301905092915050565b5f602082019050919050565b5f611f8082611eee565b611f8a8185611ef8565b9350611f9583611f08565b805f5b83811015611fc5578151611fac8882611f53565b9750611fb783611f6a565b925050600181019050611f98565b5085935050505092915050565b5f6020820190508181035f830152611fea8184611f76565b905092915050565b5f819050919050565b5f61201561201061200b84611cf8565b611ff2565b611cf8565b9050919050565b5f61202682611ffb565b9050919050565b5f6120378261201c565b9050919050565b6120478161202d565b82525050565b5f6020820190506120605f83018461203e565b92915050565b5f5f6040838503121561207c5761207b611cf4565b5b5f61208985828601611d3e565b925050602061209a85828601611dc4565b9150509250929050565b5f5f5f5f5f60a086880312156120bd576120bc611cf4565b5b5f6120ca88828901611dc4565b95505060206120db88828901611dc4565b94505060406120ec88828901611dc4565b93505060606120fd88828901611d3e565b925050608061210e88828901611d3e565b9150509295509295909350565b5f82825260208201905092915050565b7f46656520746f6f206869676800000000000000000000000000000000000000005f82015250565b5f61215f600c8361211b565b915061216a8261212b565b602082019050919050565b5f6020820190508181035f83015261218c81612153565b9050919050565b7f4c65617365206973206e6f7420616374697665000000000000000000000000005f82015250565b5f6121c760138361211b565b91506121d282612193565b602082019050919050565b5f6020820190508181035f8301526121f4816121bb565b9050919050565b7f4c6561736520616c726561647920636f6d706c657465640000000000000000005f82015250565b5f61222f60178361211b565b915061223a826121fb565b602082019050919050565b5f6020820190508181035f83015261225c81612223565b9050919050565b7f4c65617365206973206e6f7420706175736564000000000000000000000000005f82015250565b5f61229760138361211b565b91506122a282612263565b602082019050919050565b5f6020820190508181035f8301526122c48161228b565b9050919050565b7f4e487b71000000000000000000000000000000000000000000000000000000005f52601160045260245ffd5b5f61230282611d7d565b915061230d83611d7d565b9250828203905081811115612325576123246122cb565b5b92915050565b5f61233582611d7d565b915061234083611d7d565b9250828201905080821115612358576123576122cb565b5b92915050565b7f696e73756666696369656e742062616c616e63650000000000000000000000005f82015250565b5f61239260148361211b565b915061239d8261235e565b602082019050919050565b5f6020820190508181035f8301526123bf81612386565b9050919050565b5f6123d082611d7d565b91506123db83611d7d565b92508282026123e981611d7d565b91508282048414831517612400576123ff6122cb565b5b5092915050565b7f4e487b71000000000000000000000000000000000000000000000000000000005f52601260045260245ffd5b5f61243e82611d7d565b915061244983611d7d565b92508261245957612458612407565b5b828204905092915050565b7f4e487b71000000000000000000000000000000000000000000000000000000005f52603260045260245ffd5b7f4e487b71000000000000000000000000000000000000000000000000000000005f52603160045260245ffd5b7f4e487b71000000000000000000000000000000000000000000000000000000005f52604160045260245ffd5b7f4c6561736520697320616c7265616479207061757365640000000000000000005f82015250565b5f61251f60178361211b565b915061252a826124eb565b602082019050919050565b5f6020820190508181035f83015261254c81612513565b9050919050565b7f7a65726f207472656173757279000000000000000000000000000000000000005f82015250565b5f612587600d8361211b565b915061259282612553565b602082019050919050565b5f6020820190508181035f8301526125b48161257b565b9050919050565b7f4475726174696f6e206d757374206265203e20300000000000000000000000005f82015250565b5f6125ef60148361211b565b91506125fa826125bb565b602082019050919050565b5f6020820190508181035f83015261261c816125e3565b9050919050565b7f4174206c65617374206f6e65207072696365206d757374206265203e203000005f82015250565b5f612657601e8361211b565b915061266282612623565b602082019050919050565b5f6020820190508181035f8301526126848161264b565b9050919050565b7f696e76616c6964207573657200000000000000000000000000000000000000005f82015250565b5f6126bf600c8361211b565b91506126ca8261268b565b602082019050919050565b5f6020820190508181035f8301526126ec816126b3565b9050919050565b7f696e76616c69642070726f7669646572000000000000000000000000000000005f82015250565b5f61272760108361211b565b9150612732826126f3565b602082019050919050565b5f6020820190508181035f8301526127548161271b565b9050919050565b7f496e73756666696369656e7420746f6b656e2062616c616e63650000000000005f82015250565b5f61278f601a8361211b565b915061279a8261275b565b602082019050919050565b5f6020820190508181035f8301526127bc81612783565b9050919050565b5f6127cd82611d7d565b91507fffffffffffffffffffffffffffffffffffffffffffffffffffffffffffffffff82036127ff576127fe6122cb565b5b600182019050919050565b5f60a08201905061281d5f830188611d86565b61282a6020830187611e03565b6128376040830186611e03565b6128446060830185611d86565b6128516080830184611d86565b9695505050505050565b7f4c65617365206e6f7420737461727465640000000000000000000000000000005f82015250565b5f61288f60118361211b565b915061289a8261285b565b602082019050919050565b5f6020820190508181035f8301526128bc81612883565b905091905056fea2646970667358221220bd8ebb49f8eee7c1db9fbe08fe6a164e6c2302a9ce38b5eafd2bc3219807305064736f6c634300081c0033",
  "linkReferences": {},
  "deployedLinkReferences": {},
  "immutableReferences": {},
  "inputSourceName": "project/contracts/GPULease.sol",
  "buildInfoId": "solc-0_8_28-7e12230a16cafe729d18c65ce513f631e0ca7b92"
}